{
  "_format": "hh-sol-artifact-1",
  "contractName": "UserTransactions",
  "sourceName": "contracts/UserTransactions.sol",
  "abi": [
    {
      "anonymous": false,
      "inputs": [
        {
          "indexed": false,
          "internalType": "address",
          "name": "from",
          "type": "address"
        },
        {
          "indexed": false,
          "internalType": "address",
          "name": "to",
          "type": "address"
        },
        {
          "indexed": false,
          "internalType": "uint256",
          "name": "amount",
          "type": "uint256"
        },
        {
          "indexed": false,
          "internalType": "string",
          "name": "senderName",
          "type": "string"
        },
        {
          "indexed": false,
          "internalType": "string",
          "name": "message",
          "type": "string"
        },
        {
          "indexed": false,
          "internalType": "uint256",
          "name": "timestamp",
          "type": "uint256"
        }
      ],
      "name": "Transfer",
      "type": "event"
    },
    {
      "inputs": [],
      "name": "getUserTransactions",
      "outputs": [
        {
          "components": [
            {
              "internalType": "address",
              "name": "from",
              "type": "address"
            },
            {
              "internalType": "address",
              "name": "to",
              "type": "address"
            },
            {
              "internalType": "uint256",
              "name": "amount",
              "type": "uint256"
            },
            {
              "internalType": "string",
              "name": "senderName",
              "type": "string"
            },
            {
              "internalType": "string",
              "name": "message",
              "type": "string"
            },
            {
              "internalType": "uint256",
              "name": "timestamp",
              "type": "uint256"
            }
          ],
          "internalType": "struct UserTransactions.TransferStruct[]",
          "name": "",
          "type": "tuple[]"
        }
      ],
      "stateMutability": "view",
      "type": "function"
    },
    {
      "inputs": [
        {
          "internalType": "address payable",
          "name": "_to",
          "type": "address"
        },
        {
          "internalType": "uint256",
          "name": "_amount",
          "type": "uint256"
        },
        {
          "internalType": "string",
          "name": "_senderName",
          "type": "string"
        },
        {
          "internalType": "string",
          "name": "_message",
          "type": "string"
        }
      ],
      "name": "sendTransaction",
      "outputs": [],
      "stateMutability": "payable",
      "type": "function"
    }
  ],
  "bytecode": "0x608060405234801561001057600080fd5b50610f78806100206000396000f3fe6080604052600436106100295760003560e01c80636fe691dc1461002e578063d56f133114610059575b600080fd5b34801561003a57600080fd5b50610043610075565b6040516100509190610bd6565b60405180910390f35b610073600480360381019061006e91906108be565b610522565b005b606060008060005b600054811015610149573373ffffffffffffffffffffffffffffffffffffffff16600182815481106100d8577f4e487b7100000000000000000000000000000000000000000000000000000000600052603260045260246000fd5b906000526020600020906006020160000160009054906101000a900473ffffffffffffffffffffffffffffffffffffffff1673ffffffffffffffffffffffffffffffffffffffff161415610136576001836101339190610cdf565b92505b808061014190610e2d565b91505061007d565b5060008267ffffffffffffffff81111561018c577f4e487b7100000000000000000000000000000000000000000000000000000000600052604160045260246000fd5b6040519080825280602002602001820160405280156101c557816020015b6101b2610727565b8152602001906001900390816101aa5790505b50905060005b600054811015610518573373ffffffffffffffffffffffffffffffffffffffff1660018281548110610226577f4e487b7100000000000000000000000000000000000000000000000000000000600052603260045260246000fd5b906000526020600020906006020160000160009054906101000a900473ffffffffffffffffffffffffffffffffffffffff1673ffffffffffffffffffffffffffffffffffffffff161415610505576000600182815481106102b0577f4e487b7100000000000000000000000000000000000000000000000000000000600052603260045260246000fd5b90600052602060002090600602019050806040518060c00160405290816000820160009054906101000a900473ffffffffffffffffffffffffffffffffffffffff1673ffffffffffffffffffffffffffffffffffffffff1673ffffffffffffffffffffffffffffffffffffffff1681526020016001820160009054906101000a900473ffffffffffffffffffffffffffffffffffffffff1673ffffffffffffffffffffffffffffffffffffffff1673ffffffffffffffffffffffffffffffffffffffff1681526020016002820154815260200160038201805461039290610dfb565b80601f01602080910402602001604051908101604052809291908181526020018280546103be90610dfb565b801561040b5780601f106103e05761010080835404028352916020019161040b565b820191906000526020600020905b8154815290600101906020018083116103ee57829003601f168201915b5050505050815260200160048201805461042490610dfb565b80601f016020809104026020016040519081016040528092919081815260200182805461045090610dfb565b801561049d5780601f106104725761010080835404028352916020019161049d565b820191906000526020600020905b81548152906001019060200180831161048057829003601f168201915b505050505081526020016005820154815250508385815181106104e9577f4e487b7100000000000000000000000000000000000000000000000000000000600052603260045260246000fd5b60200260200101819052506001846105019190610cdf565b9350505b808061051090610e2d565b9150506101cb565b5080935050505090565b60008311610565576040517f08c379a000000000000000000000000000000000000000000000000000000000815260040161055c90610bf8565b60405180910390fd5b60016000808282546105779190610cdf565b9250508190555060016040518060c001604052803373ffffffffffffffffffffffffffffffffffffffff1681526020018673ffffffffffffffffffffffffffffffffffffffff16815260200134815260200184815260200183815260200142815250908060018154018082558091505060019003906000526020600020906006020160009091909190915060008201518160000160006101000a81548173ffffffffffffffffffffffffffffffffffffffff021916908373ffffffffffffffffffffffffffffffffffffffff16021790555060208201518160010160006101000a81548173ffffffffffffffffffffffffffffffffffffffff021916908373ffffffffffffffffffffffffffffffffffffffff1602179055506040820151816002015560608201518160030190805190602001906106b6929190610789565b5060808201518160040190805190602001906106d3929190610789565b5060a0820151816005015550507f5e245fe3ab1aa0e8ad77928e6d608e234861c6f4cc61f42cdb647db3f4f3ca4633853485854260405161071996959493929190610b67565b60405180910390a150505050565b6040518060c00160405280600073ffffffffffffffffffffffffffffffffffffffff168152602001600073ffffffffffffffffffffffffffffffffffffffff168152602001600081526020016060815260200160608152602001600081525090565b82805461079590610dfb565b90600052602060002090601f0160209004810192826107b757600085556107fe565b82601f106107d057805160ff19168380011785556107fe565b828001600101855582156107fe579182015b828111156107fd5782518255916020019190600101906107e2565b5b50905061080b919061080f565b5090565b5b80821115610828576000816000905550600101610810565b5090565b600061083f61083a84610c49565b610c18565b90508281526020810184848401111561085757600080fd5b610862848285610db9565b509392505050565b60008135905061087981610f14565b92915050565b600082601f83011261089057600080fd5b81356108a084826020860161082c565b91505092915050565b6000813590506108b881610f2b565b92915050565b600080600080608085870312156108d457600080fd5b60006108e28782880161086a565b94505060206108f3878288016108a9565b935050604085013567ffffffffffffffff81111561091057600080fd5b61091c8782880161087f565b925050606085013567ffffffffffffffff81111561093957600080fd5b6109458782880161087f565b91505092959194509250565b600061095d8383610ab9565b905092915050565b61096e81610d83565b82525050565b61097d81610d35565b82525050565b61098c81610d35565b82525050565b600061099d82610c89565b6109a78185610cac565b9350836020820285016109b985610c79565b8060005b858110156109f557848403895281516109d68582610951565b94506109e183610c9f565b925060208a019950506001810190506109bd565b50829750879550505050505092915050565b6000610a1282610c94565b610a1c8185610cbd565b9350610a2c818560208601610dc8565b610a3581610f03565b840191505092915050565b6000610a4b82610c94565b610a558185610cce565b9350610a65818560208601610dc8565b610a6e81610f03565b840191505092915050565b6000610a86601383610cce565b91507f4e6f7420656e6f756768204554482073656e74000000000000000000000000006000830152602082019050919050565b600060c083016000830151610ad16000860182610974565b506020830151610ae46020860182610974565b506040830151610af76040860182610b49565b5060608301518482036060860152610b0f8282610a07565b91505060808301518482036080860152610b298282610a07565b91505060a0830151610b3e60a0860182610b49565b508091505092915050565b610b5281610d79565b82525050565b610b6181610d79565b82525050565b600060c082019050610b7c6000830189610983565b610b896020830188610965565b610b966040830187610b58565b8181036060830152610ba88186610a40565b90508181036080830152610bbc8185610a40565b9050610bcb60a0830184610b58565b979650505050505050565b60006020820190508181036000830152610bf08184610992565b905092915050565b60006020820190508181036000830152610c1181610a79565b9050919050565b6000604051905081810181811067ffffffffffffffff82111715610c3f57610c3e610ed4565b5b8060405250919050565b600067ffffffffffffffff821115610c6457610c63610ed4565b5b601f19601f8301169050602081019050919050565b6000819050602082019050919050565b600081519050919050565b600081519050919050565b6000602082019050919050565b600082825260208201905092915050565b600082825260208201905092915050565b600082825260208201905092915050565b6000610cea82610d79565b9150610cf583610d79565b9250827fffffffffffffffffffffffffffffffffffffffffffffffffffffffffffffffff03821115610d2a57610d29610e76565b5b828201905092915050565b6000610d4082610d59565b9050919050565b6000610d5282610d59565b9050919050565b600073ffffffffffffffffffffffffffffffffffffffff82169050919050565b6000819050919050565b6000610d8e82610d95565b9050919050565b6000610da082610da7565b9050919050565b6000610db282610d59565b9050919050565b82818337600083830152505050565b60005b83811015610de6578082015181840152602081019050610dcb565b83811115610df5576000848401525b50505050565b60006002820490506001821680610e1357607f821691505b60208210811415610e2757610e26610ea5565b5b50919050565b6000610e3882610d79565b91507fffffffffffffffffffffffffffffffffffffffffffffffffffffffffffffffff821415610e6b57610e6a610e76565b5b600182019050919050565b7f4e487b7100000000000000000000000000000000000000000000000000000000600052601160045260246000fd5b7f4e487b7100000000000000000000000000000000000000000000000000000000600052602260045260246000fd5b7f4e487b7100000000000000000000000000000000000000000000000000000000600052604160045260246000fd5b6000601f19601f8301169050919050565b610f1d81610d47565b8114610f2857600080fd5b50565b610f3481610d79565b8114610f3f57600080fd5b5056fea26469706673582212200f85a3964671983a8ddf6f38f3d73ac7d47d0db5c1c6f1708f72b57825ffc5f764736f6c63430008000033",
  "linkReferences": {},
  "deployedLinkReferences": {}
}